{
  "address": "0xf13d5259421D84C56A886a6e4F18814555eEb24c",
  "abi": [
    {
      "inputs": [],
      "stateMutability": "nonpayable",
      "type": "constructor"
    },
    {
      "inputs": [],
      "name": "BonuzTokens__ExpiredTokenCannotBeRedeemed",
      "type": "error"
    },
    {
      "inputs": [],
      "name": "BonuzTokens__ExpiredTokenCannotBeTransferred",
      "type": "error"
    },
    {
      "inputs": [],
      "name": "BonuzTokens__InvalidTokenType",
      "type": "error"
    },
    {
      "inputs": [],
      "name": "BonuzTokens__NotAnAdmin",
      "type": "error"
    },
    {
      "inputs": [],
      "name": "BonuzTokens__NotAnIssuer",
      "type": "error"
    },
    {
      "inputs": [],
      "name": "BonuzTokens__NotTokenIssuer",
      "type": "error"
    },
    {
      "inputs": [],
      "name": "BonuzTokens__RedeemedTokenCannotBeTransferred",
      "type": "error"
    },
    {
      "inputs": [],
      "name": "BonuzTokens__SoulBoundTokenCannotBeTransferred",
      "type": "error"
    },
    {
      "inputs": [],
      "name": "BonuzTokens__TokenMustBeSoulBound",
      "type": "error"
    },
    {
      "inputs": [],
      "name": "BonuzTokens__VoucherAlreadyRedeemed",
      "type": "error"
    },
    {
      "inputs": [],
      "name": "BonuzTokens__ZeroAddressNotAllowed",
      "type": "error"
    },
    {
      "anonymous": false,
      "inputs": [
        {
          "indexed": true,
          "internalType": "address",
          "name": "account",
          "type": "address"
        },
        {
          "indexed": false,
          "internalType": "bool",
          "name": "isAdmin",
          "type": "bool"
        }
      ],
      "name": "AdminSet",
      "type": "event"
    },
    {
      "anonymous": false,
      "inputs": [
        {
          "indexed": true,
          "internalType": "address",
          "name": "owner",
          "type": "address"
        },
        {
          "indexed": true,
          "internalType": "address",
          "name": "approved",
          "type": "address"
        },
        {
          "indexed": true,
          "internalType": "uint256",
          "name": "tokenId",
          "type": "uint256"
        }
      ],
      "name": "Approval",
      "type": "event"
    },
    {
      "anonymous": false,
      "inputs": [
        {
          "indexed": true,
          "internalType": "address",
          "name": "owner",
          "type": "address"
        },
        {
          "indexed": true,
          "internalType": "address",
          "name": "operator",
          "type": "address"
        },
        {
          "indexed": false,
          "internalType": "bool",
          "name": "approved",
          "type": "bool"
        }
      ],
      "name": "ApprovalForAll",
      "type": "event"
    },
    {
      "anonymous": false,
      "inputs": [
        {
          "indexed": false,
          "internalType": "uint256",
          "name": "_fromTokenId",
          "type": "uint256"
        },
        {
          "indexed": false,
          "internalType": "uint256",
          "name": "_toTokenId",
          "type": "uint256"
        }
      ],
      "name": "BatchMetadataUpdate",
      "type": "event"
    },
    {
      "anonymous": false,
      "inputs": [
        {
          "indexed": true,
          "internalType": "address",
          "name": "account",
          "type": "address"
        },
        {
          "indexed": false,
          "internalType": "bool",
          "name": "isIssuer",
          "type": "bool"
        }
      ],
      "name": "IssuerSet",
      "type": "event"
    },
    {
      "anonymous": false,
      "inputs": [
        {
          "indexed": false,
          "internalType": "uint256",
          "name": "tokenId",
          "type": "uint256"
        }
      ],
      "name": "Locked",
      "type": "event"
    },
    {
      "anonymous": false,
      "inputs": [
        {
          "indexed": true,
          "internalType": "address",
          "name": "issuer",
          "type": "address"
        },
        {
          "indexed": false,
          "internalType": "uint256",
          "name": "tokenId",
          "type": "uint256"
        },
        {
          "indexed": false,
          "internalType": "uint256",
          "name": "points",
          "type": "uint256"
        }
      ],
      "name": "LoyaltyPointsAdded",
      "type": "event"
    },
    {
      "anonymous": false,
      "inputs": [
        {
          "indexed": true,
          "internalType": "address",
          "name": "issuer",
          "type": "address"
        },
        {
          "indexed": false,
          "internalType": "uint256",
          "name": "tokenId",
          "type": "uint256"
        },
        {
          "indexed": false,
          "internalType": "uint256",
          "name": "points",
          "type": "uint256"
        }
      ],
      "name": "LoyaltyPointsRemoved",
      "type": "event"
    },
    {
      "anonymous": false,
      "inputs": [
        {
          "indexed": false,
          "internalType": "uint256",
          "name": "_tokenId",
          "type": "uint256"
        }
      ],
      "name": "MetadataUpdate",
      "type": "event"
    },
    {
      "anonymous": false,
      "inputs": [
        {
          "indexed": true,
          "internalType": "address",
          "name": "previousOwner",
          "type": "address"
        },
        {
          "indexed": true,
          "internalType": "address",
          "name": "newOwner",
          "type": "address"
        }
      ],
      "name": "OwnershipTransferred",
      "type": "event"
    },
    {
      "anonymous": false,
      "inputs": [
        {
          "indexed": false,
          "internalType": "address",
          "name": "account",
          "type": "address"
        }
      ],
      "name": "Paused",
      "type": "event"
    },
    {
      "anonymous": false,
      "inputs": [
        {
          "indexed": true,
          "internalType": "address",
          "name": "issuer",
          "type": "address"
        },
        {
          "indexed": true,
          "internalType": "address",
          "name": "owner",
          "type": "address"
        },
        {
          "indexed": false,
          "internalType": "uint256",
          "name": "tokenId",
          "type": "uint256"
        },
        {
          "indexed": false,
          "internalType": "string",
          "name": "tokenType",
          "type": "string"
        },
        {
          "indexed": false,
          "internalType": "string",
          "name": "name",
          "type": "string"
        },
        {
          "indexed": false,
          "internalType": "string",
          "name": "desc",
          "type": "string"
        },
        {
          "indexed": false,
          "internalType": "string",
          "name": "imageURL",
          "type": "string"
        },
        {
          "indexed": false,
          "internalType": "bool",
          "name": "isSoulBound",
          "type": "bool"
        },
        {
          "indexed": false,
          "internalType": "uint256",
          "name": "expiryDate",
          "type": "uint256"
        },
        {
          "indexed": false,
          "internalType": "uint256",
          "name": "points",
          "type": "uint256"
        },
        {
          "indexed": false,
          "internalType": "string",
          "name": "metadataJson",
          "type": "string"
        }
      ],
      "name": "TokenMinted",
      "type": "event"
    },
    {
      "anonymous": false,
      "inputs": [
        {
          "indexed": true,
          "internalType": "address",
          "name": "issuer",
          "type": "address"
        },
        {
          "indexed": false,
          "internalType": "uint256",
          "name": "tokenId",
          "type": "uint256"
        }
      ],
      "name": "TokenRedeemed",
      "type": "event"
    },
    {
      "anonymous": false,
      "inputs": [
        {
          "indexed": true,
          "internalType": "address",
          "name": "from",
          "type": "address"
        },
        {
          "indexed": true,
          "internalType": "address",
          "name": "to",
          "type": "address"
        },
        {
          "indexed": true,
          "internalType": "uint256",
          "name": "tokenId",
          "type": "uint256"
        }
      ],
      "name": "Transfer",
      "type": "event"
    },
    {
      "anonymous": false,
      "inputs": [
        {
          "indexed": false,
          "internalType": "uint256",
          "name": "tokenId",
          "type": "uint256"
        }
      ],
      "name": "Unlocked",
      "type": "event"
    },
    {
      "anonymous": false,
      "inputs": [
        {
          "indexed": false,
          "internalType": "address",
          "name": "account",
          "type": "address"
        }
      ],
      "name": "Unpaused",
      "type": "event"
    },
    {
      "inputs": [
        {
          "internalType": "uint256",
          "name": "tokenId",
          "type": "uint256"
        },
        {
          "internalType": "uint256",
          "name": "points",
          "type": "uint256"
        }
      ],
      "name": "addLoyaltyPoints",
      "outputs": [],
      "stateMutability": "nonpayable",
      "type": "function"
    },
    {
      "inputs": [
        {
          "internalType": "address",
          "name": "to",
          "type": "address"
        },
        {
          "internalType": "uint256",
          "name": "tokenId",
          "type": "uint256"
        }
      ],
      "name": "approve",
      "outputs": [],
      "stateMutability": "nonpayable",
      "type": "function"
    },
    {
      "inputs": [
        {
          "internalType": "address",
          "name": "owner",
          "type": "address"
        }
      ],
      "name": "balanceOf",
      "outputs": [
        {
          "internalType": "uint256",
          "name": "",
          "type": "uint256"
        }
      ],
      "stateMutability": "view",
      "type": "function"
    },
    {
      "inputs": [
        {
          "internalType": "uint256",
          "name": "tokenId",
          "type": "uint256"
        }
      ],
      "name": "getApproved",
      "outputs": [
        {
          "internalType": "address",
          "name": "",
          "type": "address"
        }
      ],
      "stateMutability": "view",
      "type": "function"
    },
    {
      "inputs": [],
      "name": "getTokenCounter",
      "outputs": [
        {
          "internalType": "uint256",
          "name": "",
          "type": "uint256"
        }
      ],
      "stateMutability": "view",
      "type": "function"
    },
    {
      "inputs": [
        {
          "internalType": "uint256",
          "name": "_tokenId",
          "type": "uint256"
        }
      ],
      "name": "getTokenMetadata",
      "outputs": [
        {
          "components": [
            {
              "internalType": "address",
              "name": "issuer",
              "type": "address"
            },
            {
              "internalType": "string",
              "name": "tokenType",
              "type": "string"
            },
            {
              "internalType": "string",
              "name": "name",
              "type": "string"
            },
            {
              "internalType": "string",
              "name": "desc",
              "type": "string"
            },
            {
              "internalType": "string",
              "name": "imageURL",
              "type": "string"
            },
            {
              "internalType": "bool",
              "name": "isSoulBound",
              "type": "bool"
            },
            {
              "internalType": "uint256",
              "name": "redeemDate",
              "type": "uint256"
            },
            {
              "internalType": "uint256",
              "name": "expiryDate",
              "type": "uint256"
            },
            {
              "internalType": "uint256",
              "name": "points",
              "type": "uint256"
            },
            {
              "internalType": "string",
              "name": "metadataJson",
              "type": "string"
            }
          ],
          "internalType": "struct BonuzTokens.Metadata",
          "name": "",
          "type": "tuple"
        }
      ],
      "stateMutability": "view",
      "type": "function"
    },
    {
      "inputs": [
        {
          "internalType": "address",
          "name": "_issuerAdd",
          "type": "address"
        }
      ],
      "name": "getTokensByIssuer",
      "outputs": [
        {
          "internalType": "uint256[]",
          "name": "",
          "type": "uint256[]"
        }
      ],
      "stateMutability": "view",
      "type": "function"
    },
    {
      "inputs": [
        {
          "internalType": "address",
          "name": "_account",
          "type": "address"
        }
      ],
      "name": "isAdmin",
      "outputs": [
        {
          "internalType": "bool",
          "name": "",
          "type": "bool"
        }
      ],
      "stateMutability": "view",
      "type": "function"
    },
    {
      "inputs": [
        {
          "internalType": "address",
          "name": "owner",
          "type": "address"
        },
        {
          "internalType": "address",
          "name": "operator",
          "type": "address"
        }
      ],
      "name": "isApprovedForAll",
      "outputs": [
        {
          "internalType": "bool",
          "name": "",
          "type": "bool"
        }
      ],
      "stateMutability": "view",
      "type": "function"
    },
    {
      "inputs": [
        {
          "internalType": "address",
          "name": "_account",
          "type": "address"
        }
      ],
      "name": "isIssuer",
      "outputs": [
        {
          "internalType": "bool",
          "name": "",
          "type": "bool"
        }
      ],
      "stateMutability": "view",
      "type": "function"
    },
    {
      "inputs": [
        {
          "internalType": "uint256",
          "name": "tokenId",
          "type": "uint256"
        }
      ],
      "name": "locked",
      "outputs": [
        {
          "internalType": "bool",
          "name": "",
          "type": "bool"
        }
      ],
      "stateMutability": "view",
      "type": "function"
    },
    {
      "inputs": [
        {
          "internalType": "address",
          "name": "_account",
          "type": "address"
        },
        {
          "internalType": "string",
          "name": "_tokenType",
          "type": "string"
        },
        {
          "internalType": "string",
          "name": "_name",
          "type": "string"
        },
        {
          "internalType": "string",
          "name": "_desc",
          "type": "string"
        },
        {
          "internalType": "string",
          "name": "_imageURL",
          "type": "string"
        },
        {
          "internalType": "bool",
          "name": "_isSoulBound",
          "type": "bool"
        },
        {
          "internalType": "uint256",
          "name": "_expiryDate",
          "type": "uint256"
        },
        {
          "internalType": "uint256",
          "name": "_points",
          "type": "uint256"
        },
        {
          "internalType": "string",
          "name": "_metadataJson",
          "type": "string"
        }
      ],
      "name": "mint",
      "outputs": [],
      "stateMutability": "nonpayable",
      "type": "function"
    },
    {
      "inputs": [],
      "name": "name",
      "outputs": [
        {
          "internalType": "string",
          "name": "",
          "type": "string"
        }
      ],
      "stateMutability": "view",
      "type": "function"
    },
    {
      "inputs": [],
      "name": "owner",
      "outputs": [
        {
          "internalType": "address",
          "name": "",
          "type": "address"
        }
      ],
      "stateMutability": "view",
      "type": "function"
    },
    {
      "inputs": [
        {
          "internalType": "uint256",
          "name": "tokenId",
          "type": "uint256"
        }
      ],
      "name": "ownerOf",
      "outputs": [
        {
          "internalType": "address",
          "name": "",
          "type": "address"
        }
      ],
      "stateMutability": "view",
      "type": "function"
    },
    {
      "inputs": [],
      "name": "paused",
      "outputs": [
        {
          "internalType": "bool",
          "name": "",
          "type": "bool"
        }
      ],
      "stateMutability": "view",
      "type": "function"
    },
    {
      "inputs": [
        {
          "internalType": "uint256",
          "name": "tokenId",
          "type": "uint256"
        }
      ],
      "name": "redeemVoucher",
      "outputs": [],
      "stateMutability": "nonpayable",
      "type": "function"
    },
    {
      "inputs": [
        {
          "internalType": "uint256",
          "name": "tokenId",
          "type": "uint256"
        },
        {
          "internalType": "uint256",
          "name": "points",
          "type": "uint256"
        }
      ],
      "name": "removeLoyaltyPoints",
      "outputs": [],
      "stateMutability": "nonpayable",
      "type": "function"
    },
    {
      "inputs": [],
      "name": "renounceOwnership",
      "outputs": [],
      "stateMutability": "nonpayable",
      "type": "function"
    },
    {
      "inputs": [
        {
          "internalType": "address",
          "name": "from",
          "type": "address"
        },
        {
          "internalType": "address",
          "name": "to",
          "type": "address"
        },
        {
          "internalType": "uint256",
          "name": "tokenId",
          "type": "uint256"
        }
      ],
      "name": "safeTransferFrom",
      "outputs": [],
      "stateMutability": "nonpayable",
      "type": "function"
    },
    {
      "inputs": [
        {
          "internalType": "address",
          "name": "from",
          "type": "address"
        },
        {
          "internalType": "address",
          "name": "to",
          "type": "address"
        },
        {
          "internalType": "uint256",
          "name": "tokenId",
          "type": "uint256"
        },
        {
          "internalType": "bytes",
          "name": "data",
          "type": "bytes"
        }
      ],
      "name": "safeTransferFrom",
      "outputs": [],
      "stateMutability": "nonpayable",
      "type": "function"
    },
    {
      "inputs": [
        {
          "internalType": "address",
          "name": "_account",
          "type": "address"
        },
        {
          "internalType": "bool",
          "name": "_state",
          "type": "bool"
        }
      ],
      "name": "setAdmin",
      "outputs": [],
      "stateMutability": "nonpayable",
      "type": "function"
    },
    {
      "inputs": [
        {
          "internalType": "address",
          "name": "operator",
          "type": "address"
        },
        {
          "internalType": "bool",
          "name": "approved",
          "type": "bool"
        }
      ],
      "name": "setApprovalForAll",
      "outputs": [],
      "stateMutability": "nonpayable",
      "type": "function"
    },
    {
      "inputs": [
        {
          "internalType": "address",
          "name": "_account",
          "type": "address"
        },
        {
          "internalType": "bool",
          "name": "_state",
          "type": "bool"
        }
      ],
      "name": "setIssuer",
      "outputs": [],
      "stateMutability": "nonpayable",
      "type": "function"
    },
    {
      "inputs": [
        {
          "internalType": "bool",
          "name": "_switch",
          "type": "bool"
        }
      ],
      "name": "setPause",
      "outputs": [],
      "stateMutability": "nonpayable",
      "type": "function"
    },
    {
      "inputs": [
        {
          "internalType": "bytes4",
          "name": "interfaceId",
          "type": "bytes4"
        }
      ],
      "name": "supportsInterface",
      "outputs": [
        {
          "internalType": "bool",
          "name": "",
          "type": "bool"
        }
      ],
      "stateMutability": "view",
      "type": "function"
    },
    {
      "inputs": [],
      "name": "symbol",
      "outputs": [
        {
          "internalType": "string",
          "name": "",
          "type": "string"
        }
      ],
      "stateMutability": "view",
      "type": "function"
    },
    {
      "inputs": [
        {
          "internalType": "uint256",
          "name": "tokenId",
          "type": "uint256"
        }
      ],
      "name": "tokenURI",
      "outputs": [
        {
          "internalType": "string",
          "name": "",
          "type": "string"
        }
      ],
      "stateMutability": "view",
      "type": "function"
    },
    {
      "inputs": [
        {
          "internalType": "address",
          "name": "from",
          "type": "address"
        },
        {
          "internalType": "address",
          "name": "to",
          "type": "address"
        },
        {
          "internalType": "uint256",
          "name": "tokenId",
          "type": "uint256"
        }
      ],
      "name": "transferFrom",
      "outputs": [],
      "stateMutability": "nonpayable",
      "type": "function"
    },
    {
      "inputs": [
        {
          "internalType": "address",
          "name": "newOwner",
          "type": "address"
        }
      ],
      "name": "transferOwnership",
      "outputs": [],
      "stateMutability": "nonpayable",
      "type": "function"
    }
  ],
  "transactionHash": "0x4ab29f566255045a571d7b7e4f1bbfb75b5816f75f2c4118cf17791ac240b1de",
  "args": [],
  "numDeployments": 1,
  "solcInputHash": "cb004c951ba20741b18fac8bd0f0fd5c",
  "bytecode": "0x60806040526001600c553480156200001657600080fd5b506040518060400160405280600b81526020016a426f6e757a546f6b656e7360a81b8152506040518060400160405280600581526020016421272d2a2760d91b81525081600090816200006a9190620001ce565b506001620000798282620001ce565b50506006805460ff19169055506200009133620000cf565b60016007819055336000908152600a60209081526040808320805460ff1990811686179091556009909252909120805490911690911790556200029a565b600680546001600160a01b03838116610100818102610100600160a81b031985161790945560405193909204169182907f8be0079c531659141344cd1fd0a4f28419497f9722a3daafe3b4186f6b6457e090600090a35050565b634e487b7160e01b600052604160045260246000fd5b600181811c908216806200015457607f821691505b6020821081036200017557634e487b7160e01b600052602260045260246000fd5b50919050565b601f821115620001c957600081815260208120601f850160051c81016020861015620001a45750805b601f850160051c820191505b81811015620001c557828155600101620001b0565b5050505b505050565b81516001600160401b03811115620001ea57620001ea62000129565b6200020281620001fb84546200013f565b846200017b565b602080601f8311600181146200023a5760008415620002215750858301515b600019600386901b1c1916600185901b178555620001c5565b600085815260208120601f198616915b828110156200026b578886015182559484019460019091019084016200024a565b50858210156200028a5787850151600019600388901b60f8161c191681555b5050505050600190811b01905550565b614f6e80620002aa6000396000f3fe608060405234801561001057600080fd5b506004361061016a5760003560e01c806301ffc9a71461016f57806306fdde0314610197578063081812fc146101ac578063095ea7b3146101cc5780630b0af798146101e15780631c6d6b5e1461020157806323b872dd1461021457806324d7806c1461022757806337fd0df21461025357806342842e0e14610266578063495289be146102795780634b0bddd21461028c5780635c975abb1461029f57806360316801146102aa5780636352211e146102ca5780636739cf37146102dd5780636e02007d146102f057806370a0823114610302578063715018a614610315578063877b9a671461031d5780638da5cb5b1461034957806395d89b4114610351578063a22cb46514610359578063b45a3c0e1461036c578063b88d4fde14610392578063bedb86fb146103a5578063c87b56dd146103b8578063cacbc5c0146103cb578063e985e9c5146103de578063f2fde38b146103f1575b600080fd5b61018261017d366004613f66565b610404565b60405190151581526020015b60405180910390f35b61019f61044a565b60405161018e9190613fda565b6101bf6101ba366004613fed565b6104dc565b60405161018e9190614006565b6101df6101da366004614036565b610503565b005b6101f46101ef366004614060565b61061d565b60405161018e919061407b565b6101df61020f366004613fed565b610689565b6101df6102223660046140bf565b610b4e565b610182610235366004614060565b6001600160a01b03166000908152600a602052604090205460ff1690565b6101df6102613660046141b6565b610b7f565b6101df6102743660046140bf565b610ecd565b6101df6102873660046142bc565b610ee8565b6101df61029a3660046142bc565b610fa5565b60065460ff16610182565b6102bd6102b8366004613fed565b61102d565b60405161018e91906142ef565b6101bf6102d8366004613fed565b6113cd565b6101df6102eb3660046143e1565b611401565b600c545b60405190815260200161018e565b6102f4610310366004614060565b6118ac565b6101df611932565b61018261032b366004614060565b6001600160a01b031660009081526009602052604090205460ff1690565b6101bf611946565b61019f61195a565b6101df6103673660046142bc565b611969565b61018261037a366004613fed565b60009081526008602052604090206005015460ff1690565b6101df6103a0366004614403565b611978565b6101df6103b336600461447e565b6119b0565b61019f6103c6366004613fed565b6119d1565b6101df6103d93660046143e1565b61299b565b6101826103ec366004614499565b612e6b565b6101df6103ff366004614060565b612e99565b60006001600160e01b03198216635a2d1e0760e11b148061043557506001600160e01b03198216632483248360e11b145b80610444575061044482612f0f565b92915050565b606060008054610459906144c3565b80601f0160208091040260200160405190810160405280929190818152602001828054610485906144c3565b80156104d25780601f106104a7576101008083540402835291602001916104d2565b820191906000526020600020905b8154815290600101906020018083116104b557829003601f168201915b5050505050905090565b60006104e782612f5f565b506000908152600460205260409020546001600160a01b031690565b600061050e826113cd565b9050806001600160a01b0316836001600160a01b0316036105805760405162461bcd60e51b815260206004820152602160248201527f4552433732313a20617070726f76616c20746f2063757272656e74206f776e656044820152603960f91b60648201526084015b60405180910390fd5b336001600160a01b038216148061059c575061059c8133612e6b565b61060e5760405162461bcd60e51b815260206004820152603d60248201527f4552433732313a20617070726f76652063616c6c6572206973206e6f7420746f60448201527f6b656e206f776e6572206f7220617070726f76656420666f7220616c6c0000006064820152608401610577565b6106188383612f84565b505050565b6001600160a01b0381166000908152600b602090815260409182902080548351818402810184019094528084526060939283018282801561067d57602002820191906000526020600020905b815481526020019060010190808311610669575b50505050509050919050565b3360009081526009602052604081205460ff16151590036106bd57604051632b8a20d760e01b815260040160405180910390fd5b60008181526008602090815260408083208151610140810190925280546001600160a01b0316825260018101805492939192918401916106fc906144c3565b80601f0160208091040260200160405190810160405280929190818152602001828054610728906144c3565b80156107755780601f1061074a57610100808354040283529160200191610775565b820191906000526020600020905b81548152906001019060200180831161075857829003601f168201915b5050505050815260200160028201805461078e906144c3565b80601f01602080910402602001604051908101604052809291908181526020018280546107ba906144c3565b80156108075780601f106107dc57610100808354040283529160200191610807565b820191906000526020600020905b8154815290600101906020018083116107ea57829003601f168201915b50505050508152602001600382018054610820906144c3565b80601f016020809104026020016040519081016040528092919081815260200182805461084c906144c3565b80156108995780601f1061086e57610100808354040283529160200191610899565b820191906000526020600020905b81548152906001019060200180831161087c57829003601f168201915b505050505081526020016004820180546108b2906144c3565b80601f01602080910402602001604051908101604052809291908181526020018280546108de906144c3565b801561092b5780601f106109005761010080835404028352916020019161092b565b820191906000526020600020905b81548152906001019060200180831161090e57829003601f168201915b5050509183525050600582015460ff161515602082015260068201546040820152600782015460608201526008820154608082015260098201805460a090920191610975906144c3565b80601f01602080910402602001604051908101604052809291908181526020018280546109a1906144c3565b80156109ee5780601f106109c3576101008083540402835291602001916109ee565b820191906000526020600020905b8154815290600101906020018083116109d157829003601f168201915b5050505050815250509050604051602001610a08906144fd565b604051602081830303815290604052805190602001208160200151604051602001610a339190614510565b6040516020818303038152906040528051906020012014610a675760405163f1ac8f7360e01b815260040160405180910390fd5b80516001600160a01b03163314610a915760405163e07147c560e01b815260040160405180910390fd5b428160e0015111610ab557604051631a074ccb60e01b815260040160405180910390fd5b60c081015115610ad857604051637a2f0b9d60e01b815260040160405180910390fd5b600082815260086020526040908190204260069091015551600080516020614f1983398151915290610b0d9084815260200190565b60405180910390a160405182815233907fce4385affa8ad2cbec45b1660c6f6afcb691bf0a7a73ebda096ee1dfb670fe6f9060200160405180910390a25050565b610b583382612ff2565b610b745760405162461bcd60e51b81526004016105779061452c565b610618838383613051565b886001600160a01b038116610ba7576040516332183caf60e01b815260040160405180910390fd5b3360009081526009602052604081205460ff1615159003610bdb57604051632b8a20d760e01b815260040160405180910390fd5b610be36131c2565b600089604051602001610bf69190614510565b604051602081830303815290604052805190602001209050604051602001610c1d90614579565b60405160208183030381529060405280519060200120811480610c635750604051602001610c4a90614588565b6040516020818303038152906040528051906020012081145b8015610c6d575085155b15610c8b576040516323ae815560e21b815260040160405180910390fd5b8515610ccd577f032bc66be43dbccb7487781d168eb7bda224628a3b2c3388bdf69b532a3a1611600c54604051610cc491815260200190565b60405180910390a15b604051806101400160405280610ce03390565b6001600160a01b03908116825260208083018e905260408084018e9052606084018d9052608084018c90528a151560a0850152600060c0850181905260e085018b905261010085018a9052610120909401889052600c54845260088252909220835181546001600160a01b0319169216919091178155908201516001820190610d6990826145ed565b5060408201516002820190610d7e90826145ed565b5060608201516003820190610d9390826145ed565b5060808201516004820190610da890826145ed565b5060a082015160058201805460ff191691151591909117905560c0820151600682015560e0820151600782015561010082015160088201556101208201516009820190610df590826145ed565b50905050600b6000610e043390565b6001600160a01b031681526020808201929092526040016000908120600c8054825460018101845592845293909220019190915554610e44908c9061321b565b6001600160a01b038b16336001600160a01b03167fd46b896c8eb5345d6fc2b9f352d2006185c2c5cd58adf376941595d5928e92c9600c548d8d8d8d8d8d8d8d604051610e99999897969594939291906146ac565b60405180910390a3600c8054906000610eb183614751565b919050555050610ec16001600755565b50505050505050505050565b61061883838360405180602001604052806000815250611978565b816001600160a01b038116610f10576040516332183caf60e01b815260040160405180910390fd5b336000908152600a602052604081205460ff1615159003610f44576040516351a17ce760e01b815260040160405180910390fd5b6001600160a01b038316600081815260096020908152604091829020805460ff191686151590811790915591519182527fc6aeabbc4fc4eb208b2b4cec7249245167cb6191c47e2e6f82a3cd59a89ce7e191015b60405180910390a2505050565b816001600160a01b038116610fcd576040516332183caf60e01b815260040160405180910390fd5b610fd5613235565b6001600160a01b0383166000818152600a6020908152604091829020805460ff191686151590811790915591519182527fe68d2c359a771606c400cf8b87000cf5864010363d6a736e98f5047b7bbe18e99101610f98565b61108e60405180610140016040528060006001600160a01b0316815260200160608152602001606081526020016060815260200160608152602001600015158152602001600081526020016000815260200160008152602001606081525090565b6000828152600860209081526040918290208251610140810190935280546001600160a01b0316835260018101805491928401916110cb906144c3565b80601f01602080910402602001604051908101604052809291908181526020018280546110f7906144c3565b80156111445780601f1061111957610100808354040283529160200191611144565b820191906000526020600020905b81548152906001019060200180831161112757829003601f168201915b5050505050815260200160028201805461115d906144c3565b80601f0160208091040260200160405190810160405280929190818152602001828054611189906144c3565b80156111d65780601f106111ab576101008083540402835291602001916111d6565b820191906000526020600020905b8154815290600101906020018083116111b957829003601f168201915b505050505081526020016003820180546111ef906144c3565b80601f016020809104026020016040519081016040528092919081815260200182805461121b906144c3565b80156112685780601f1061123d57610100808354040283529160200191611268565b820191906000526020600020905b81548152906001019060200180831161124b57829003601f168201915b50505050508152602001600482018054611281906144c3565b80601f01602080910402602001604051908101604052809291908181526020018280546112ad906144c3565b80156112fa5780601f106112cf576101008083540402835291602001916112fa565b820191906000526020600020905b8154815290600101906020018083116112dd57829003601f168201915b5050509183525050600582015460ff161515602082015260068201546040820152600782015460608201526008820154608082015260098201805460a090920191611344906144c3565b80601f0160208091040260200160405190810160405280929190818152602001828054611370906144c3565b80156113bd5780601f10611392576101008083540402835291602001916113bd565b820191906000526020600020905b8154815290600101906020018083116113a057829003601f168201915b5050505050815250509050919050565b6000806113d983613294565b90506001600160a01b0381166104445760405162461bcd60e51b81526004016105779061476a565b3360009081526009602052604081205460ff161515900361143557604051632b8a20d760e01b815260040160405180910390fd5b60008281526008602090815260408083208151610140810190925280546001600160a01b031682526001810180549293919291840191611474906144c3565b80601f01602080910402602001604051908101604052809291908181526020018280546114a0906144c3565b80156114ed5780601f106114c2576101008083540402835291602001916114ed565b820191906000526020600020905b8154815290600101906020018083116114d057829003601f168201915b50505050508152602001600282018054611506906144c3565b80601f0160208091040260200160405190810160405280929190818152602001828054611532906144c3565b801561157f5780601f106115545761010080835404028352916020019161157f565b820191906000526020600020905b81548152906001019060200180831161156257829003601f168201915b50505050508152602001600382018054611598906144c3565b80601f01602080910402602001604051908101604052809291908181526020018280546115c4906144c3565b80156116115780601f106115e657610100808354040283529160200191611611565b820191906000526020600020905b8154815290600101906020018083116115f457829003601f168201915b5050505050815260200160048201805461162a906144c3565b80601f0160208091040260200160405190810160405280929190818152602001828054611656906144c3565b80156116a35780601f10611678576101008083540402835291602001916116a3565b820191906000526020600020905b81548152906001019060200180831161168657829003601f168201915b5050509183525050600582015460ff161515602082015260068201546040820152600782015460608201526008820154608082015260098201805460a0909201916116ed906144c3565b80601f0160208091040260200160405190810160405280929190818152602001828054611719906144c3565b80156117665780601f1061173b57610100808354040283529160200191611766565b820191906000526020600020905b81548152906001019060200180831161174957829003601f168201915b50505050508152505090506040516020016117809061479c565b6040516020818303038152906040528051906020012081602001516040516020016117ab9190614510565b60405160208183030381529060405280519060200120146117df5760405163f1ac8f7360e01b815260040160405180910390fd5b80516001600160a01b031633146118095760405163e07147c560e01b815260040160405180910390fd5b428160e001511161182d57604051631a074ccb60e01b815260040160405180910390fd5b6000838152600860208190526040822001805484929061184e9084906147af565b9091555050604051838152600080516020614f198339815191529060200160405180910390a1604080518481526020810184905233917f503b67ab8ec954983ee95e5887ca4389a70175156de37975a60c7c0c403701639101610f98565b60006001600160a01b0382166119165760405162461bcd60e51b815260206004820152602960248201527f4552433732313a2061646472657373207a65726f206973206e6f7420612076616044820152683634b21037bbb732b960b91b6064820152608401610577565b506001600160a01b031660009081526003602052604090205490565b61193a613235565b61194460006132af565b565b60065461010090046001600160a01b031690565b606060018054610459906144c3565b611974338383613309565b5050565b6119823383612ff2565b61199e5760405162461bcd60e51b81526004016105779061452c565b6119aa848484846133d3565b50505050565b6119b8613235565b80156119c9576119c6613406565b50565b6119c661345a565b600081815260086020908152604080832081518084018352848152825180850184528581528351808601855286815293516060969395929491939192879291611a1f91600189019101614835565b604051602081830303815290604052805190602001209050604051602001611a46906144fd565b604051602081830303815290604052805190602001208103611d4f57604051806040016040528060078152602001662b27aaa1a422a960c91b8152509450856002018054611a93906144c3565b80601f0160208091040260200160405190810160405280929190818152602001828054611abf906144c3565b8015611b0c5780601f10611ae157610100808354040283529160200191611b0c565b820191906000526020600020905b815481529060010190602001808311611aef57829003601f168201915b50505050509350856003018054611b22906144c3565b80601f0160208091040260200160405190810160405280929190818152602001828054611b4e906144c3565b8015611b9b5780601f10611b7057610100808354040283529160200191611b9b565b820191906000526020600020905b815481529060010190602001808311611b7e57829003601f168201915b5093965060039350611bac92505050565b604051908082528060200260200182016040528015611bdf57816020015b6060815260200190600190039081611bca5790505b50915084604051602001611bf39190614841565b60405160208183030381529060405282600081518110611c1557611c15614892565b6020026020010181905250611c2d8660060154613493565b600687015415611c5957604051806040016040528060048152602001636461746560e01b815250611c77565b604051806040016040528060048152602001631d195e1d60e21b8152505b604051602001611c889291906148a8565b60405160208183030381529060405282600181518110611caa57611caa614892565b6020026020010181905250611cc28660070154613493565b600787015415611cee57604051806040016040528060048152602001636461746560e01b815250611d0c565b604051806040016040528060048152602001631d195e1d60e21b8152505b604051602001611d1d92919061493c565b60405160208183030381529060405282600281518110611d3f57611d3f614892565b6020026020010181905250612877565b604051602001611d5e90614579565b604051602081830303815290604052805190602001208103611fbe57604051806040016040528060038152602001620504f560ec1b8152509450856002018054611da7906144c3565b80601f0160208091040260200160405190810160405280929190818152602001828054611dd3906144c3565b8015611e205780601f10611df557610100808354040283529160200191611e20565b820191906000526020600020905b815481529060010190602001808311611e0357829003601f168201915b50505050509350856003018054611e36906144c3565b80601f0160208091040260200160405190810160405280929190818152602001828054611e62906144c3565b8015611eaf5780601f10611e8457610100808354040283529160200191611eaf565b820191906000526020600020905b815481529060010190602001808311611e9257829003601f168201915b5093965060029350611ec092505050565b604051908082528060200260200182016040528015611ef357816020015b6060815260200190600190039081611ede5790505b50915084604051602001611f079190614841565b60405160208183030381529060405282600081518110611f2957611f29614892565b6020026020010181905250611f418660060154613493565b600687015415611f6d57604051806040016040528060048152602001636461746560e01b815250611f8b565b604051806040016040528060048152602001631d195e1d60e21b8152505b604051602001611f9c9291906148a8565b60405160208183030381529060405282600181518110611d3f57611d3f614892565b604051602001611fcd90614588565b604051602081830303815290604052805190602001208103612213576040518060400160405280600b81526020016a434552544946494341544560a81b815250945085600201805461201e906144c3565b80601f016020809104026020016040519081016040528092919081815260200182805461204a906144c3565b80156120975780601f1061206c57610100808354040283529160200191612097565b820191906000526020600020905b81548152906001019060200180831161207a57829003601f168201915b505050505093508560030180546120ad906144c3565b80601f01602080910402602001604051908101604052809291908181526020018280546120d9906144c3565b80156121265780601f106120fb57610100808354040283529160200191612126565b820191906000526020600020905b81548152906001019060200180831161210957829003601f168201915b509396506002935061213792505050565b60405190808252806020026020018201604052801561216a57816020015b60608152602001906001900390816121555790505b5091508460405160200161217e9190614841565b604051602081830303815290604052826000815181106121a0576121a0614892565b60200260200101819052506121b88660060154613493565b6006870154156121e457604051806040016040528060048152602001636461746560e01b815250612202565b604051806040016040528060048152602001631d195e1d60e21b8152505b604051602001611f9c929190614983565b6040516020016122229061479c565b60405160208183030381529060405280519060200120810361256557604051806040016040528060078152602001664c4f59414c545960c81b815250945085600201805461226f906144c3565b80601f016020809104026020016040519081016040528092919081815260200182805461229b906144c3565b80156122e85780601f106122bd576101008083540402835291602001916122e8565b820191906000526020600020905b8154815290600101906020018083116122cb57829003601f168201915b505050505093508560030180546122fe906144c3565b80601f016020809104026020016040519081016040528092919081815260200182805461232a906144c3565b80156123775780601f1061234c57610100808354040283529160200191612377565b820191906000526020600020905b81548152906001019060200180831161235a57829003601f168201915b509396506004935061238892505050565b6040519080825280602002602001820160405280156123bb57816020015b60608152602001906001900390816123a65790505b509150846040516020016123cf9190614841565b604051602081830303815290604052826000815181106123f1576123f1614892565b60200260200101819052506124098660060154613493565b60068701541561243557604051806040016040528060048152602001636461746560e01b815250612453565b604051806040016040528060048152602001631d195e1d60e21b8152505b604051602001612464929190614a1f565b6040516020818303038152906040528260018151811061248657612486614892565b602002602001018190525061249e8660070154613493565b6007870154156124ca57604051806040016040528060048152602001636461746560e01b8152506124e8565b604051806040016040528060048152602001631d195e1d60e21b8152505b6040516020016124f992919061493c565b6040516020818303038152906040528260028151811061251b5761251b614892565b60200260200101819052506125338660080154613493565b6040516020016125439190614ab8565b60405160208183030381529060405282600381518110611d3f57611d3f614892565b6040516904d454d424552534849560b41b6020820152602a01604051602081830303815290604052805190602001208103612877576040518060400160405280600a81526020016904d454d424552534849560b41b81525094508560020180546125ce906144c3565b80601f01602080910402602001604051908101604052809291908181526020018280546125fa906144c3565b80156126475780601f1061261c57610100808354040283529160200191612647565b820191906000526020600020905b81548152906001019060200180831161262a57829003601f168201915b5050505050935085600301805461265d906144c3565b80601f0160208091040260200160405190810160405280929190818152602001828054612689906144c3565b80156126d65780601f106126ab576101008083540402835291602001916126d6565b820191906000526020600020905b8154815290600101906020018083116126b957829003601f168201915b50939650600393506126e792505050565b60405190808252806020026020018201604052801561271a57816020015b60608152602001906001900390816127055790505b5091508460405160200161272e9190614841565b6040516020818303038152906040528260008151811061275057612750614892565b6020908102919091010152600586015460ff16612788576040518060400160405280600381526020016259657360e81b8152506127a4565b604051806040016040528060028152602001614e6f60f01b8152505b6040516020016127b49190614b1d565b604051602081830303815290604052826001815181106127d6576127d6614892565b60200260200101819052506127ee8660060154613493565b60068701541561281a57604051806040016040528060048152602001636461746560e01b815250612838565b604051806040016040528060048152602001631d195e1d60e21b8152505b6040516020016128499291906148a8565b6040516020818303038152906040528260028151811061286b5761286b614892565b60200260200101819052505b600061289d60405180604001604052806002815260200161016160f51b81525084613525565b90506000866128ab8b613493565b876040516020016128be93929190614b81565b6040516020818303038152906040529050600088600301866040516020016128e7929190614bf0565b6040516020818303038152906040529050600061292b83838c600401876040516020016129179493929190614c31565b6040516020818303038152906040526135b0565b905060006040518060400160405280601d81526020017f646174613a6170706c69636174696f6e2f6a736f6e3b6261736536342c0000008152509050808260405160200161297a929190614cfd565b6040516020818303038152906040529b505050505050505050505050919050565b3360009081526009602052604081205460ff16151590036129cf57604051632b8a20d760e01b815260040160405180910390fd5b60008281526008602090815260408083208151610140810190925280546001600160a01b031682526001810180549293919291840191612a0e906144c3565b80601f0160208091040260200160405190810160405280929190818152602001828054612a3a906144c3565b8015612a875780601f10612a5c57610100808354040283529160200191612a87565b820191906000526020600020905b815481529060010190602001808311612a6a57829003601f168201915b50505050508152602001600282018054612aa0906144c3565b80601f0160208091040260200160405190810160405280929190818152602001828054612acc906144c3565b8015612b195780601f10612aee57610100808354040283529160200191612b19565b820191906000526020600020905b815481529060010190602001808311612afc57829003601f168201915b50505050508152602001600382018054612b32906144c3565b80601f0160208091040260200160405190810160405280929190818152602001828054612b5e906144c3565b8015612bab5780601f10612b8057610100808354040283529160200191612bab565b820191906000526020600020905b815481529060010190602001808311612b8e57829003601f168201915b50505050508152602001600482018054612bc4906144c3565b80601f0160208091040260200160405190810160405280929190818152602001828054612bf0906144c3565b8015612c3d5780601f10612c1257610100808354040283529160200191612c3d565b820191906000526020600020905b815481529060010190602001808311612c2057829003601f168201915b5050509183525050600582015460ff161515602082015260068201546040820152600782015460608201526008820154608082015260098201805460a090920191612c87906144c3565b80601f0160208091040260200160405190810160405280929190818152602001828054612cb3906144c3565b8015612d005780601f10612cd557610100808354040283529160200191612d00565b820191906000526020600020905b815481529060010190602001808311612ce357829003601f168201915b5050505050815250509050604051602001612d1a9061479c565b604051602081830303815290604052805190602001208160200151604051602001612d459190614510565b6040516020818303038152906040528051906020012014612d795760405163f1ac8f7360e01b815260040160405180910390fd5b80516001600160a01b03163314612da35760405163e07147c560e01b815260040160405180910390fd5b428160e0015111612dc757604051631a074ccb60e01b815260040160405180910390fd5b8181610100015110612dff5760008381526008602081905260408220018054849290612df4908490614d2c565b90915550612e129050565b6000838152600860208190526040822001555b604051838152600080516020614f198339815191529060200160405180910390a1604080518481526020810184905233917fcc809b74da26c69bfd3eb42a37858bc0777799a5c7645cc728b0d25785e717fc9101610f98565b6001600160a01b03918216600090815260056020908152604080832093909416825291909152205460ff1690565b612ea1613235565b6001600160a01b038116612f065760405162461bcd60e51b815260206004820152602660248201527f4f776e61626c653a206e6577206f776e657220697320746865207a65726f206160448201526564647265737360d01b6064820152608401610577565b6119c6816132af565b60006001600160e01b031982166380ac58cd60e01b1480612f4057506001600160e01b03198216635b5e139f60e01b145b8061044457506301ffc9a760e01b6001600160e01b0319831614610444565b612f6881613702565b6119c65760405162461bcd60e51b81526004016105779061476a565b600081815260046020526040902080546001600160a01b0319166001600160a01b0384169081179091558190612fb9826113cd565b6001600160a01b03167f8c5be1e5ebec7d5bd14f71427d1e84f3dd0314c0f7b2291e5b200ac8c7c3b92560405160405180910390a45050565b600080612ffe836113cd565b9050806001600160a01b0316846001600160a01b0316148061302557506130258185612e6b565b806130495750836001600160a01b031661303e846104dc565b6001600160a01b0316145b949350505050565b826001600160a01b0316613064826113cd565b6001600160a01b03161461308a5760405162461bcd60e51b815260040161057790614d3f565b6001600160a01b0382166130ec5760405162461bcd60e51b8152602060048201526024808201527f4552433732313a207472616e7366657220746f20746865207a65726f206164646044820152637265737360e01b6064820152608401610577565b6130f9838383600161371f565b826001600160a01b031661310c826113cd565b6001600160a01b0316146131325760405162461bcd60e51b815260040161057790614d3f565b600081815260046020908152604080832080546001600160a01b03199081169091556001600160a01b0387811680865260038552838620805460001901905590871680865283862080546001019055868652600290945282852080549092168417909155905184937fddf252ad1be2c89b69c2b068fc378daa952ba7f163c4a11628f55a4df523b3ef91a4505050565b6002600754036132145760405162461bcd60e51b815260206004820152601f60248201527f5265656e7472616e637947756172643a207265656e7472616e742063616c6c006044820152606401610577565b6002600755565b611974828260405180602001604052806000815250613b14565b3361323e611946565b6001600160a01b0316146119445760405162461bcd60e51b815260206004820181905260248201527f4f776e61626c653a2063616c6c6572206973206e6f7420746865206f776e65726044820152606401610577565b6000908152600260205260409020546001600160a01b031690565b600680546001600160a01b03838116610100818102610100600160a81b031985161790945560405193909204169182907f8be0079c531659141344cd1fd0a4f28419497f9722a3daafe3b4186f6b6457e090600090a35050565b816001600160a01b0316836001600160a01b0316036133665760405162461bcd60e51b815260206004820152601960248201527822a9219b99189d1030b8383937bb32903a379031b0b63632b960391b6044820152606401610577565b6001600160a01b03838116600081815260056020908152604080832094871680845294825291829020805460ff191686151590811790915591519182527f17307eab39ab6107e8899845ad3d59bd9653f200f220920489ca2b5937696c31910160405180910390a3505050565b6133de848484613051565b6133ea84848484613b47565b6119aa5760405162461bcd60e51b815260040161057790614d84565b61340e613c48565b6006805460ff191660011790557f62e78cea01bee320cd4e420270b5ea74000d11b0c9f74754ebdbfc544b05a2586134433390565b6040516134509190614006565b60405180910390a1565b613462613c8e565b6006805460ff191690557f5db9ee0a495bf2e6ff9c91a7834c1ba4fdd244a5e8aa4e537bd38aeae4b073aa33613443565b606060006134a083613cd7565b60010190506000816001600160401b038111156134bf576134bf6140fb565b6040519080825280601f01601f1916602001820160405280156134e9576020820181803683370190505b5090508181016020015b600019016f181899199a1a9b1b9c1cb0b131b232b360811b600a86061a8153600a85049450846134f357509392505050565b606060008260008151811061353c5761353c614892565b602002602001015190506000600190505b83518110156135a857818585838151811061356a5761356a614892565b602002602001015160405160200161358493929190614dd6565b604051602081830303815290604052915080806135a090614751565b91505061354d565b509392505050565b606081516000036135cf57505060408051602081019091526000815290565b6000604051806060016040528060408152602001614ed960409139905060006003845160026135fe91906147af565b6136089190614e19565b613613906004614e3b565b6001600160401b0381111561362a5761362a6140fb565b6040519080825280601f01601f191660200182016040528015613654576020820181803683370190505b509050600182016020820185865187015b808210156136c0576003820191508151603f8160121c168501518453600184019350603f81600c1c168501518453600184019350603f8160061c168501518453600184019350603f8116850151845350600183019250613665565b50506003865106600181146136dc57600281146136ef576136f7565b603d6001830353603d60028303536136f7565b603d60018303535b509195945050505050565b60008061370e83613294565b6001600160a01b0316141592915050565b613727613c48565b60008281526008602090815260408083208151610140810190925280546001600160a01b031682526001810180549293919291840191613766906144c3565b80601f0160208091040260200160405190810160405280929190818152602001828054613792906144c3565b80156137df5780601f106137b4576101008083540402835291602001916137df565b820191906000526020600020905b8154815290600101906020018083116137c257829003601f168201915b505050505081526020016002820180546137f8906144c3565b80601f0160208091040260200160405190810160405280929190818152602001828054613824906144c3565b80156138715780601f1061384657610100808354040283529160200191613871565b820191906000526020600020905b81548152906001019060200180831161385457829003601f168201915b5050505050815260200160038201805461388a906144c3565b80601f01602080910402602001604051908101604052809291908181526020018280546138b6906144c3565b80156139035780601f106138d857610100808354040283529160200191613903565b820191906000526020600020905b8154815290600101906020018083116138e657829003601f168201915b5050505050815260200160048201805461391c906144c3565b80601f0160208091040260200160405190810160405280929190818152602001828054613948906144c3565b80156139955780601f1061396a57610100808354040283529160200191613995565b820191906000526020600020905b81548152906001019060200180831161397857829003601f168201915b5050509183525050600582015460ff161515602082015260068201546040820152600782015460608201526008820154608082015260098201805460a0909201916139df906144c3565b80601f0160208091040260200160405190810160405280929190818152602001828054613a0b906144c3565b8015613a585780601f10613a2d57610100808354040283529160200191613a58565b820191906000526020600020905b815481529060010190602001808311613a3b57829003601f168201915b505050919092525091925050506001600160a01b03851615613b01578060a0015115613a97576040516341c323cf60e01b815260040160405180910390fd5b60e081015115801590613aae5750428160e0015111155b15613acc5760405163891d51fb60e01b815260040160405180910390fd5b60c081015115801590613ae35750428160c0015111155b15613b01576040516396ddb2af60e01b815260040160405180910390fd5b613b0d85858585613dad565b5050505050565b613b1e8383613e35565b613b2b6000848484613b47565b6106185760405162461bcd60e51b815260040161057790614d84565b60006001600160a01b0384163b15613c3d57604051630a85bd0160e11b81526001600160a01b0385169063150b7a0290613b8b903390899088908890600401614e52565b6020604051808303816000875af1925050508015613bc6575060408051601f3d908101601f19168201909252613bc391810190614e85565b60015b613c23573d808015613bf4576040519150601f19603f3d011682016040523d82523d6000602084013e613bf9565b606091505b508051600003613c1b5760405162461bcd60e51b815260040161057790614d84565b805181602001fd5b6001600160e01b031916630a85bd0160e11b149050613049565b506001949350505050565b60065460ff16156119445760405162461bcd60e51b815260206004820152601060248201526f14185d5cd8589b194e881c185d5cd95960821b6044820152606401610577565b60065460ff166119445760405162461bcd60e51b815260206004820152601460248201527314185d5cd8589b194e881b9bdd081c185d5cd95960621b6044820152606401610577565b60008072184f03e93ff9f4daa797ed6e38ed64bf6a1f0160401b8310613d165772184f03e93ff9f4daa797ed6e38ed64bf6a1f0160401b830492506040015b6904ee2d6d415b85acef8160201b8310613d40576904ee2d6d415b85acef8160201b830492506020015b662386f26fc100008310613d5e57662386f26fc10000830492506010015b6305f5e1008310613d76576305f5e100830492506008015b6127108310613d8a57612710830492506004015b60648310613d9c576064830492506002015b600a83106104445760010192915050565b60018111156119aa576001600160a01b03841615613df3576001600160a01b03841660009081526003602052604081208054839290613ded908490614d2c565b90915550505b6001600160a01b038316156119aa576001600160a01b03831660009081526003602052604081208054839290613e2a9084906147af565b909155505050505050565b6001600160a01b038216613e8b5760405162461bcd60e51b815260206004820181905260248201527f4552433732313a206d696e7420746f20746865207a65726f20616464726573736044820152606401610577565b613e9481613702565b15613eb15760405162461bcd60e51b815260040161057790614ea2565b613ebf60008383600161371f565b613ec881613702565b15613ee55760405162461bcd60e51b815260040161057790614ea2565b6001600160a01b038216600081815260036020908152604080832080546001019055848352600290915280822080546001600160a01b0319168417905551839291907fddf252ad1be2c89b69c2b068fc378daa952ba7f163c4a11628f55a4df523b3ef908290a45050565b6001600160e01b0319811681146119c657600080fd5b600060208284031215613f7857600080fd5b8135613f8381613f50565b9392505050565b60005b83811015613fa5578181015183820152602001613f8d565b50506000910152565b60008151808452613fc6816020860160208601613f8a565b601f01601f19169290920160200192915050565b602081526000613f836020830184613fae565b600060208284031215613fff57600080fd5b5035919050565b6001600160a01b0391909116815260200190565b80356001600160a01b038116811461403157600080fd5b919050565b6000806040838503121561404957600080fd5b6140528361401a565b946020939093013593505050565b60006020828403121561407257600080fd5b613f838261401a565b6020808252825182820181905260009190848201906040850190845b818110156140b357835183529284019291840191600101614097565b50909695505050505050565b6000806000606084860312156140d457600080fd5b6140dd8461401a565b92506140eb6020850161401a565b9150604084013590509250925092565b634e487b7160e01b600052604160045260246000fd5b60006001600160401b038084111561412b5761412b6140fb565b604051601f8501601f19908116603f01168101908282118183101715614153576141536140fb565b8160405280935085815286868601111561416c57600080fd5b858560208301376000602087830101525050509392505050565b600082601f83011261419757600080fd5b613f8383833560208501614111565b8035801515811461403157600080fd5b60008060008060008060008060006101208a8c0312156141d557600080fd5b6141de8a61401a565b985060208a01356001600160401b03808211156141fa57600080fd5b6142068d838e01614186565b995060408c013591508082111561421c57600080fd5b6142288d838e01614186565b985060608c013591508082111561423e57600080fd5b61424a8d838e01614186565b975060808c013591508082111561426057600080fd5b61426c8d838e01614186565b965061427a60a08d016141a6565b955060c08c0135945060e08c013593506101008c013591508082111561429f57600080fd5b506142ac8c828d01614186565b9150509295985092959850929598565b600080604083850312156142cf57600080fd5b6142d88361401a565b91506142e6602084016141a6565b90509250929050565b602081526143096020820183516001600160a01b03169052565b60006020830151610140806040850152614327610160850183613fae565b91506040850151601f19808685030160608701526143458483613fae565b935060608701519150808685030160808701526143628483613fae565b935060808701519150808685030160a087015261437f8483613fae565b935060a0870151915061439660c087018315159052565b60c087015160e08781019190915287015161010080880191909152870151610120808801919091528701518685039091018387015290506143d78382613fae565b9695505050505050565b600080604083850312156143f457600080fd5b50508035926020909101359150565b6000806000806080858703121561441957600080fd5b6144228561401a565b93506144306020860161401a565b92506040850135915060608501356001600160401b0381111561445257600080fd5b8501601f8101871361446357600080fd5b61447287823560208401614111565b91505092959194509250565b60006020828403121561449057600080fd5b613f83826141a6565b600080604083850312156144ac57600080fd5b6144b58361401a565b91506142e66020840161401a565b600181811c908216806144d757607f821691505b6020821081036144f757634e487b7160e01b600052602260045260246000fd5b50919050565b662b27aaa1a422a960c91b815260070190565b60008251614522818460208701613f8a565b9190910192915050565b6020808252602d908201527f4552433732313a2063616c6c6572206973206e6f7420746f6b656e206f776e6560408201526c1c881bdc88185c1c1c9bdd9959609a1b606082015260800190565b620504f560ec1b815260030190565b6a434552544946494341544560a81b8152600b0190565b601f82111561061857600081815260208120601f850160051c810160208610156145c65750805b601f850160051c820191505b818110156145e5578281556001016145d2565b505050505050565b81516001600160401b03811115614606576146066140fb565b61461a8161461484546144c3565b8461459f565b602080601f83116001811461464f57600084156146375750858301515b600019600386901b1c1916600185901b1785556145e5565b600085815260208120601f198616915b8281101561467e5788860151825594840194600190910190840161465f565b508582101561469c5787850151600019600388901b60f8161c191681555b5050505050600190811b01905550565b60006101208b83528060208401526146c68184018c613fae565b905082810360408401526146da818b613fae565b905082810360608401526146ee818a613fae565b905082810360808401526147028189613fae565b905086151560a08401528560c08401528460e084015282810361010084015261472b8185613fae565b9c9b505050505050505050505050565b634e487b7160e01b600052601160045260246000fd5b6000600182016147635761476361473b565b5060010190565b602080825260189082015277115490cdcc8c4e881a5b9d985b1a59081d1bdad95b88125160421b604082015260600190565b664c4f59414c545960c81b815260070190565b808201808211156104445761044461473b565b600081546147cf816144c3565b600182811680156147e757600181146147fc5761482b565b60ff198416875282151583028701945061482b565b8560005260208060002060005b858110156148225781548a820152908401908201614809565b50505082870194505b5050505092915050565b6000613f8382846147c2565b7f7b2274726169745f74797065223a2254797065222c202276616c7565223a220081526000825161487981601f850160208701613f8a565b61227d60f01b601f939091019283015250602101919050565b634e487b7160e01b600052603260045260246000fd5b7f7b2274726169745f74797065223a2252656465656d6564204174222c20227661815265363ab2911d1160d11b6020820152600083516148ef816026850160208801613f8a565b711116113234b9b83630bcafba3cb832911d1160711b6026918401918201528351614921816038840160208801613f8a565b61227d60f01b60389290910191820152603a01949350505050565b7f7b2274726169745f74797065223a224578706972792044617465222c20227661815265363ab2911d1160d11b6020820152600083516148ef816026850160208801613f8a565b7f7b2274726169745f74797065223a22436f7572736520436f6d706c657465642081526d20ba111610113b30b63ab2911d1160911b6020820152600083516149d281602e850160208801613f8a565b711116113234b9b83630bcafba3cb832911d1160711b602e918401918201528351614a04816040840160208801613f8a565b61227d60f01b60409290910191820152604201949350505050565b7f7b2274726169745f74797065223a224c6173742052656465656d65642041742281526a1610113b30b63ab2911d1160a91b602082015260008351614a6b81602b850160208801613f8a565b711116113234b9b83630bcafba3cb832911d1160711b602b918401918201528351614a9d81603d840160208801613f8a565b61227d60f01b603d9290910191820152603f01949350505050565b7f7b2274726169745f74797065223a22506f696e747320417661696c61626c652281526a1610113b30b63ab2911d1160a91b602082015260008251614b0481602b850160208701613f8a565b61227d60f01b602b939091019283015250602d01919050565b7f7b2274726169745f74797065223a226973207472616e7366657261626c65222c81526910113b30b63ab2911d1160b11b602082015260008251614b6881602a850160208701613f8a565b61227d60f01b602a939091019283015250602c01919050565b60008451614b93818460208901613f8a565b61202360f01b9083019081528451614bb2816002840160208901613f8a565b61040560f31b600292909101918201528351614bd5816004840160208801613f8a565b602960f81b6004929091019182015260050195945050505050565b6000614bfc82856147c2565b61040560f31b81528351614c17816002840160208801613f8a565b602960f81b60029290910191820152600301949350505050565b693d913730b6b2911d101160b11b81528451600090614c5781600a850160208a01613f8a565b72111610113232b9b1b934b83a34b7b7111d101160691b600a918401918201528551614c8a81601d840160208a01613f8a565b6c1116101134b6b0b3b2911d101160991b601d9290910191820152614cb2602a8201866147c2565b71222c202261747472696275746573223a205b60701b81528451909150614ce0816012840160208801613f8a565b615d7d60f01b601292909101918201526014019695505050505050565b60008351614d0f818460208801613f8a565b835190830190614d23818360208801613f8a565b01949350505050565b818103818111156104445761044461473b565b60208082526025908201527f4552433732313a207472616e736665722066726f6d20696e636f72726563742060408201526437bbb732b960d91b606082015260800190565b60208082526032908201527f4552433732313a207472616e7366657220746f206e6f6e20455243373231526560408201527131b2b4bb32b91034b6b83632b6b2b73a32b960711b606082015260800190565b60008451614de8818460208901613f8a565b845190830190614dfc818360208901613f8a565b8451910190614e0f818360208801613f8a565b0195945050505050565b600082614e3657634e487b7160e01b600052601260045260246000fd5b500490565b80820281158282048414176104445761044461473b565b6001600160a01b03858116825284166020820152604081018390526080606082018190526000906143d790830184613fae565b600060208284031215614e9757600080fd5b8151613f8381613f50565b6020808252601c908201527b115490cdcc8c4e881d1bdad95b88185b1c9958591e481b5a5b9d195960221b60408201526060019056fe4142434445464748494a4b4c4d4e4f505152535455565758595a6162636465666768696a6b6c6d6e6f707172737475767778797a303132333435363738392b2ff8e1a15aba9398e019f0b49df1a4fde98ee17ae345cb5f6b5e2c27f5033e8ce7a26469706673582212207cd199fcefad1e2d9afd99cb9329aa4f446ef8ffd42c48cc08904d03780a88e064736f6c63430008110033",
  "devdoc": {
    "events": {
      "BatchMetadataUpdate(uint256,uint256)": {
        "details": "This event emits when the metadata of a range of tokens is changed. So that the third-party platforms such as NFT market could timely update the images and related attributes of the NFTs."
      },
      "Locked(uint256)": {
        "details": "If a token is minted and the status is locked, this event should be emitted.",
        "params": {
          "tokenId": "The identifier for a token."
        }
      },
      "MetadataUpdate(uint256)": {
        "details": "This event emits when the metadata of a token is changed. So that the third-party platforms such as NFT market could timely update the images and related attributes of the NFT."
      },
      "Unlocked(uint256)": {
        "details": "If a token is minted and the status is unlocked, this event should be emitted.",
        "params": {
          "tokenId": "The identifier for a token."
        }
      }
    },
    "kind": "dev",
    "methods": {
      "approve(address,uint256)": {
        "details": "See {IERC721-approve}."
      },
      "balanceOf(address)": {
        "details": "See {IERC721-balanceOf}."
      },
      "getApproved(uint256)": {
        "details": "See {IERC721-getApproved}."
      },
      "isApprovedForAll(address,address)": {
        "details": "See {IERC721-isApprovedForAll}."
      },
      "locked(uint256)": {
        "details": "ERC-5192SBTs assigned to zero address are considered invalid, and queries about them do throw.",
        "params": {
          "tokenId": "The identifier for an SBT."
        }
      },
      "name()": {
        "details": "See {IERC721Metadata-name}."
      },
      "owner()": {
        "details": "Returns the address of the current owner."
      },
      "ownerOf(uint256)": {
        "details": "See {IERC721-ownerOf}."
      },
      "paused()": {
        "details": "Returns true if the contract is paused, and false otherwise."
      },
      "renounceOwnership()": {
        "details": "Leaves the contract without owner. It will not be possible to call `onlyOwner` functions anymore. Can only be called by the current owner. NOTE: Renouncing ownership will leave the contract without an owner, thereby removing any functionality that is only available to the owner."
      },
      "safeTransferFrom(address,address,uint256)": {
        "details": "See {IERC721-safeTransferFrom}."
      },
      "safeTransferFrom(address,address,uint256,bytes)": {
        "details": "See {IERC721-safeTransferFrom}."
      },
      "setApprovalForAll(address,bool)": {
        "details": "See {IERC721-setApprovalForAll}."
      },
      "supportsInterface(bytes4)": {
        "details": "IERC165-supportsInterface"
      },
      "symbol()": {
        "details": "See {IERC721Metadata-symbol}."
      },
      "tokenURI(uint256)": {
        "details": "See {IERC721Metadata-tokenURI}."
      },
      "transferFrom(address,address,uint256)": {
        "details": "See {IERC721-transferFrom}."
      },
      "transferOwnership(address)": {
        "details": "Transfers ownership of the contract to a new account (`newOwner`). Can only be called by the current owner."
      }
    },
    "version": 1
  },
  "userdoc": {
    "events": {
      "Locked(uint256)": {
        "notice": "Emitted when the locking status is changed to locked."
      },
      "Unlocked(uint256)": {
        "notice": "Emitted when the locking status is changed to unlocked."
      }
    },
    "kind": "user",
    "methods": {
      "locked(uint256)": {
        "notice": "Returns the locking status of an Soulbound Token"
      }
    },
    "version": 1
  },
  "storageLayout": {
    "storage": [
      {
        "astId": 993,
        "contract": "contracts/BonuzTokens.sol:BonuzTokens",
        "label": "_name",
        "offset": 0,
        "slot": "0",
        "type": "t_string_storage"
      },
      {
        "astId": 995,
        "contract": "contracts/BonuzTokens.sol:BonuzTokens",
        "label": "_symbol",
        "offset": 0,
        "slot": "1",
        "type": "t_string_storage"
      },
      {
        "astId": 999,
        "contract": "contracts/BonuzTokens.sol:BonuzTokens",
        "label": "_owners",
        "offset": 0,
        "slot": "2",
        "type": "t_mapping(t_uint256,t_address)"
      },
      {
        "astId": 1003,
        "contract": "contracts/BonuzTokens.sol:BonuzTokens",
        "label": "_balances",
        "offset": 0,
        "slot": "3",
        "type": "t_mapping(t_address,t_uint256)"
      },
      {
        "astId": 1007,
        "contract": "contracts/BonuzTokens.sol:BonuzTokens",
        "label": "_tokenApprovals",
        "offset": 0,
        "slot": "4",
        "type": "t_mapping(t_uint256,t_address)"
      },
      {
        "astId": 1013,
        "contract": "contracts/BonuzTokens.sol:BonuzTokens",
        "label": "_operatorApprovals",
        "offset": 0,
        "slot": "5",
        "type": "t_mapping(t_address,t_mapping(t_address,t_bool))"
      },
      {
        "astId": 133,
        "contract": "contracts/BonuzTokens.sol:BonuzTokens",
        "label": "_paused",
        "offset": 0,
        "slot": "6",
        "type": "t_bool"
      },
      {
        "astId": 7,
        "contract": "contracts/BonuzTokens.sol:BonuzTokens",
        "label": "_owner",
        "offset": 1,
        "slot": "6",
        "type": "t_address"
      },
      {
        "astId": 234,
        "contract": "contracts/BonuzTokens.sol:BonuzTokens",
        "label": "_status",
        "offset": 0,
        "slot": "7",
        "type": "t_uint256"
      },
      {
        "astId": 4483,
        "contract": "contracts/BonuzTokens.sol:BonuzTokens",
        "label": "_token",
        "offset": 0,
        "slot": "8",
        "type": "t_mapping(t_uint256,t_struct(Metadata)4478_storage)"
      },
      {
        "astId": 4487,
        "contract": "contracts/BonuzTokens.sol:BonuzTokens",
        "label": "_issuer",
        "offset": 0,
        "slot": "9",
        "type": "t_mapping(t_address,t_bool)"
      },
      {
        "astId": 4491,
        "contract": "contracts/BonuzTokens.sol:BonuzTokens",
        "label": "_admin",
        "offset": 0,
        "slot": "10",
        "type": "t_mapping(t_address,t_bool)"
      },
      {
        "astId": 4496,
        "contract": "contracts/BonuzTokens.sol:BonuzTokens",
        "label": "_tokensByIssuer",
        "offset": 0,
        "slot": "11",
        "type": "t_mapping(t_address,t_array(t_uint256)dyn_storage)"
      },
      {
        "astId": 4499,
        "contract": "contracts/BonuzTokens.sol:BonuzTokens",
        "label": "_tokenIdCounter",
        "offset": 0,
        "slot": "12",
        "type": "t_uint256"
      }
    ],
    "types": {
      "t_address": {
        "encoding": "inplace",
        "label": "address",
        "numberOfBytes": "20"
      },
      "t_array(t_uint256)dyn_storage": {
        "base": "t_uint256",
        "encoding": "dynamic_array",
        "label": "uint256[]",
        "numberOfBytes": "32"
      },
      "t_bool": {
        "encoding": "inplace",
        "label": "bool",
        "numberOfBytes": "1"
      },
      "t_mapping(t_address,t_array(t_uint256)dyn_storage)": {
        "encoding": "mapping",
        "key": "t_address",
        "label": "mapping(address => uint256[])",
        "numberOfBytes": "32",
        "value": "t_array(t_uint256)dyn_storage"
      },
      "t_mapping(t_address,t_bool)": {
        "encoding": "mapping",
        "key": "t_address",
        "label": "mapping(address => bool)",
        "numberOfBytes": "32",
        "value": "t_bool"
      },
      "t_mapping(t_address,t_mapping(t_address,t_bool))": {
        "encoding": "mapping",
        "key": "t_address",
        "label": "mapping(address => mapping(address => bool))",
        "numberOfBytes": "32",
        "value": "t_mapping(t_address,t_bool)"
      },
      "t_mapping(t_address,t_uint256)": {
        "encoding": "mapping",
        "key": "t_address",
        "label": "mapping(address => uint256)",
        "numberOfBytes": "32",
        "value": "t_uint256"
      },
      "t_mapping(t_uint256,t_address)": {
        "encoding": "mapping",
        "key": "t_uint256",
        "label": "mapping(uint256 => address)",
        "numberOfBytes": "32",
        "value": "t_address"
      },
      "t_mapping(t_uint256,t_struct(Metadata)4478_storage)": {
        "encoding": "mapping",
        "key": "t_uint256",
        "label": "mapping(uint256 => struct BonuzTokens.Metadata)",
        "numberOfBytes": "32",
        "value": "t_struct(Metadata)4478_storage"
      },
      "t_string_storage": {
        "encoding": "bytes",
        "label": "string",
        "numberOfBytes": "32"
      },
      "t_struct(Metadata)4478_storage": {
        "encoding": "inplace",
        "label": "struct BonuzTokens.Metadata",
        "members": [
          {
            "astId": 4459,
            "contract": "contracts/BonuzTokens.sol:BonuzTokens",
            "label": "issuer",
            "offset": 0,
            "slot": "0",
            "type": "t_address"
          },
          {
            "astId": 4461,
            "contract": "contracts/BonuzTokens.sol:BonuzTokens",
            "label": "tokenType",
            "offset": 0,
            "slot": "1",
            "type": "t_string_storage"
          },
          {
            "astId": 4463,
            "contract": "contracts/BonuzTokens.sol:BonuzTokens",
            "label": "name",
            "offset": 0,
            "slot": "2",
            "type": "t_string_storage"
          },
          {
            "astId": 4465,
            "contract": "contracts/BonuzTokens.sol:BonuzTokens",
            "label": "desc",
            "offset": 0,
            "slot": "3",
            "type": "t_string_storage"
          },
          {
            "astId": 4467,
            "contract": "contracts/BonuzTokens.sol:BonuzTokens",
            "label": "imageURL",
            "offset": 0,
            "slot": "4",
            "type": "t_string_storage"
          },
          {
            "astId": 4469,
            "contract": "contracts/BonuzTokens.sol:BonuzTokens",
            "label": "isSoulBound",
            "offset": 0,
            "slot": "5",
            "type": "t_bool"
          },
          {
            "astId": 4471,
            "contract": "contracts/BonuzTokens.sol:BonuzTokens",
            "label": "redeemDate",
            "offset": 0,
            "slot": "6",
            "type": "t_uint256"
          },
          {
            "astId": 4473,
            "contract": "contracts/BonuzTokens.sol:BonuzTokens",
            "label": "expiryDate",
            "offset": 0,
            "slot": "7",
            "type": "t_uint256"
          },
          {
            "astId": 4475,
            "contract": "contracts/BonuzTokens.sol:BonuzTokens",
            "label": "points",
            "offset": 0,
            "slot": "8",
            "type": "t_uint256"
          },
          {
            "astId": 4477,
            "contract": "contracts/BonuzTokens.sol:BonuzTokens",
            "label": "metadataJson",
            "offset": 0,
            "slot": "9",
            "type": "t_string_storage"
          }
        ],
        "numberOfBytes": "320"
      },
      "t_uint256": {
        "encoding": "inplace",
        "label": "uint256",
        "numberOfBytes": "32"
      }
    }
  }
}